S02B000057494E43313530305F50524F564953494F4E5F485454505F4558414D504C452D7570646174652E735A
S1130000383E0020316200002D6200002D620000A5
S113001000000000000000000000000000000000DC
S11300200000000000000000000000002D6200003D
S113003000000000000000002D6200002D6200009E
S11300402D6200002D6200002D6200002D62000070
S1130050994800002D6200002D6200002D6200000E
S11300602D620000054E0000154E0000254E0000D4
S1130070354E0000454E0000554E00002D62000034
S11300802D6200002D6200002D6200002D62000030
S11300902D6200002D6200002D6200002D62000020
S11300A02D6200002D6200002D6200002D62000010
S11300B00000000010B5064C2378002B07D1054B37
S11300C0002B02D0044800E000BF0123237010BDC0
S11300D0880200200000000000A00000084B10B5BA
S11300E0002B03D00749084800E000BF0748036815
S11300F0002B00D110BD064B002BFBD09847F9E72D
S1130100000000008C02002000A0000000A00000FD
S11301100000000030B585B0040000230393056897
S1130120304B98472B79002B58D101332B712E4B30
S113013098479F2201AB1A706279D10900230029E4
S113014004D15309DB0129498C4663441F21114022
S113015001228A405A61012201A92068244B984750
S11301600023032203A92068224DA8476279D109FC
S11301700023002904D15309DB011C498C46634444
S11301801F21114001228A409A61002322681371C1
S113019023790A2B17D89B00174AD3589F46174B2D
S11301A014E0174B12E0174B10E0174B0EE0174BFF
S11301B00CE0174B0AE0174B08E0174B06E0174B0F
S11301C004E0174B02E0002300E0164B039A9A4226
S11301D002D0142005B030BD0020FBE7024B984745
S11301E00520F7E785470000C547000000440041AB
S11301F0055200003D500000308800001F430000FD
S11302001F4401001F4402001F4502001F45010056
S11302101F4602001F4603001F8600001F470100FF
S11302201F4800001F650000F0B585B004000E00F3
S113023001921F005A1803790A2B15D89B003249E2
S1130240CB589F468023DB0212E080231B030FE080
S113025080235B030CE080239B0309E08023DB0302
S113026006E080231B0403E0002301E080235B02FB
S113027017209A4201D905B0F0BD2568234B984751
S11302802B79002B3CD101332B71214B98470B2345
S113029002AA1370D670330A9370360C56706279C2
S11302A0D1090023002904D15309DB0119498C46E3
S11302B063441F21114001228A405A61052202A988
S11302C02068154B9847002F13D16279D109002378
S11302D0002904D15309DB010E498C4663441F21D4
S11302E0114001228A409A61236800221A71002079
S11302F0C1E700233A0001992068084DA847E4E7C4
S1130300034B98470520B6E75C880000854700004A
S1130310C547000000440041055200003D50000064
S1130320F0B5DE4657464E464546E0B585B0050075
S11303300E0001921F005A1803790A2B15D89B004E
S1130340AE49CB589F468023DB0212E080231B0377
S11303500FE080235B030CE080239B0309E08023F0
S1130360DB0306E080231B0403E0002301E0802379
S11303705B0217209A4206D905B03CBC90469946C8
S1130380A246AB46F0BD2C689D4B98472379002BC1
S113039000D02EE1013323719A4B9847062302AA19
S11303A013706A79D1090023002904D15309DB01B0
S11303B095498C4663441F21114001228A405A61A9
S11303C0012202A92868914B98476A79D109002330
S11303D0002904D15309DB018B498C4663441F2156
S11303E0114001228A409A61FF22324080235B003F
S11303F09B1A1A1C9BB2BB4200D93A1C93B29A4670
S1130400022302AA1370D670330A9370330C53700C
S11304106A79D1090023002904D15309DB017A49FF
S11304208C4663441F21114001228A405A610422F0
S113043002A92868754B98475346002B45D16A7921
S1130440D1090023002904D15309DB016E498C46EC
S113045063441F21114001228A409A612B68196864
S113046001220B7E1342FCD06A79D10900230029B2
S113047004D15309DB0164498C4663441F211140B4
S113048001228A405A612B681B681A7ED20701D563
S113049005229A62286802680421137E0B42FCD06C
S11304A0137E00245B0709D5538B5B0701D5042316
S11304B053838379012B0ED0946AE4B20121002383
S11304C098460420B4462E0010E05246019928684C
S11304D04E4B9847B3E7936ADB05DC0DEEE7AB7947
S11304E0012B1AD0946AE4B221421AD033681A68F4
S11304F0137E0B42FCD0137E0B4201D04346936221
S113050035682A68137E0342FCD0137E0342EBD085
S1130510538B0342E3D05083E1E7946AE405E40D8E
S1130520E2E7350066466A79D1090023002904D13F
S11305305309DB0134498C4663441F2111400122D5
S11305408A409A611020A3064FD45346FF1ABBB2C7
S11305501900019A91460020002B46D01F239B4688
S113056001242A4B9846534601938A4658E01A00C0
S113057049462868254B9847A4E0906AC005C00DF9
S1130580E1E0BB79012B1AD0906AC0B204421AD0C0
S11305902B681A68137E2342FCD0137E234201D0B9
S11305A0002393622F683A68137E0B42FCD0137EBB
S11305B00B42EBD0538B0B42E3D05183E1E7906ABB
S11305C0C005C00DE2E76B79D9090022002904D1E6
S11305D05A09D2010C498C46624459460B40210009
S11305E099409161830613D510202B6800221A715B
S11305F0C2E6044B98470520BEE6C0468C8800003E
S113060085470000C5470000004400410552000032
S11306105346019A9B1A9BB29A46002B00D194E050
S113062002AB06221A706B79D9090022002904D181
S11306305A09D20146498C46624459460B4021006E
S113064099405161220002A92868C0476B79D909F1
S11306500022002904D15A09D2013D498C46624442
S113066059460B40210099409161019A9446664491
S1130670E144574680235B009A4501D9354B1F88D6
S1130680BBB20193022302AA1370D670330A93708B
S1130690330C53706B79D9090022002904D15A090B
S11306A0D2012B498C46624459460B4021009940A3
S11306B05161042202A92868274B9847019B002B0B
S11306C000D054E76B79D9090022002904D15A09D2
S11306D0D2011F498C46624459460B40210099407F
S11306E091612B681A68137E2342FCD06B79D90977
S11306F00022002904D15A09D20115498C466244CA
S113070059460B402100994051612B681B681A7EA1
S1130710224201D005229A622B689C461A68042161
S1130720137E0B42FCD0137E00205B070BD5538B4A
S11307305B0701D50423538363469B79012B00D1C6
S11307401BE7906AC0B2042122E700204DE7C046AF
S1130750004400418888000005520000F0B583B0D1
S113076004000E00150003790A2B00D9F2E09B0067
S11307707B4AD3589F468023DB0210E080231B036F
S11307800DE080235B030AE080239B0307E08023C2
S1130790DB0304E080231B0401E080235B021720B9
S11307A09E4201D303B0F0BD27686E4B98473B7956
S11307B0002B00D0D0E001333B716B4B98470623EC
S11307C06A4613706279D1090023002904D15309C0
S11307D0DB0166498C4663441F21114001228A4093
S11307E05A61012269462068614B98476279D109B0
S11307F00023002904D15309DB015C498C4663447E
S11308001F21114001228A409A61012D06D0002D3A
S113081063D0D823022D02D0002300E052236A467D
S11308201370D670330A9370360C56706279D109FE
S11308300023002904D15309DB014C498C4663444D
S11308401F21114001228A405A610422694620680E
S1130850474B98476279D1090023002904D15309F1
S1130860DB0142498C4663441F21114001228A4026
S11308709A612368196801220B7E1342FCD06279C5
S1130880D1090023002904D15309DB0137498C46DF
S113089063441F21114001228A405A6123681B6866
S11308A01A7ED20701D505229A62206802680421C3
S11308B0137E0B42FCD0137E00255B0709D5538BB6
S11308C05B0701D5042353838379012B07D0956AF1
S11308D0EDB20121002704200CE020239FE7956A54
S11308E0ED05ED0DF5E7B379012B19D0956AEDB25D
S11308F0294219D023681A68137E0B42FCD0137E58
S11309000B4200D0976226683268137E0342FCD003
S1130910137E0342ECD0538B0342E4D05083E2E7CE
S1130920956AED05ED0DE3E76279D109002300290D
S113093004D15309DB010D498C4663441F21114046
S113094001228A409A61A806C00F00012368002290
S11309501A7127E7172025E7034B9847052021E75D
S1130960B888000085470000C547000000440041E6
S11309700552000070B582B004000D000668354BC6
S113098098473379002B60D101333371324B984748
S113099006236A4613706279D1090023002904D121
S11309A05309DB012D498C4663441F211140012268
S11309B08A405A61012269462068294B9847627926
S11309C0D1090023002904D15309DB0123498C46B2
S11309D063441F21114001228A409A613C236A1E0C
S11309E095416D422B406A46D37101236A461370C8
S11309F06279D1090023002904D15309DB01174985
S1130A008C4663441F21114001228A405A6101220D
S1130A1069462068124DA84701226B46D91D2068FB
S1130A20A8476279D1090023002904D15309DB01C5
S1130A300A498C4663441F21114001228A409A616D
S1130A40236800221A71002002E0034B9847052016
S1130A5002B070BD85470000C54700000044004156
S1130A6005520000F0B583B004000E0015000379B0
S1130A700A2B00D97FE09B00424AD3589F4680232B
S1130A80DB0210E080231B030DE080235B030AE0FC
S1130A9080239B0307E08023DB0304E080231B0403
S1130AA001E080235B0217209E4201D303B0F0BD16
S1130AB02768354B98473B79002B5ED101333B7156
S1130AC0324B984706236A4613706279D109002392
S1130AD0002904D15309DB012D498C4663441F21AD
S1130AE0114001228A405A61012269462068294B3B
S1130AF098476279D1090023002904D15309DB0105
S1130B0023498C4663441F21114001228A409A6183
S1130B103623002D00D103336A461370D670330A8E
S1130B209370360C56706279D1090023002904D1E0
S1130B305309DB0116498C4663441F2111400122ED
S1130B408A405A61042269462068124B98476279A8
S1130B50D1090023002904D15309DB010C498C4637
S1130B6063441F21114001228A409A6123680022B4
S1130B701A7100209AE7172098E7044B984705203C
S1130B8094E7C046E488000085470000C54700009C
S1130B90004400410552000030B583B004000568EC
S1130BA01C4B98472B79002B2ED101332B711A4BF8
S1130BB09847AB236A4613706279D1090023002950
S1130BC004D15309DB0115498C4663441F211140AC
S1130BD001228A405A61012269462068104B9847D5
S1130BE06279D1090023002904D15309DB010B499F
S1130BF08C4663441F21114001228A409A61236874
S1130C0000221A71002002E0034B9847052003B02C
S1130C1030BDC04685470000C54700000044004180
S1130C200552000070B50020084B98470500084C99
S1130C30FA218900A047074B186007492800A047FC
S1130C40064B18600522064B1A6070BDBD5F00009C
S1130C50B97000000000002040420F000400002092
S1130C6010E000E030B5084B1C68084A00258021DC
S1130C704902013807D3002CFBD0546095601368F7
S1130C800B42FCD0F5E730BD0000002010E000E08E
S1130C9010B5034B1B68002B00D0984710BDC0460D
S1130CA0A402002070B582B00023144A136001AC82
S1130CB001256570A370257021002620104EB047D1
S1130CC021002520B04721002720B0470D4B2022CA
S1130CD05A6120325A610C4B1B681D4203D00A4BE7
S1130CE01B689B0701D4094B98470122084B1A70D3
S1130CF0BFF35F8F62B6002002B070BDA402002073
S1130D00FD4900008044004110E000E0250C000093
S1130D100A00002000B583B001A900230B708B707A
S1130D204B70054B20225A6120325A612420034B18
S1130D309847002003B000BD80440041FD490000F5
S1130D4070B5441E002804D0024D0120A847013C80
S1130D50FBD270BD650C0000F8B5064C2027676116
S1130D60402565610120044EB047A7610A20B047C1
S1130D70A561F8BD80440041410D000010B584B068
S1130D800E4B186001AC20000D4B984724230193AF
S1130D9000236360013323720133E37221000420D2
S1130DA0084B9847002204210748084B9847002124
S1130DB00420074B984704B010BDC046A40200208D
S1130DC07149000085490000910C00002D48000085
S1130DD05948000010B5002804D100210420044B18
S1130DE0984710BD00210420024B9847F9E7C046FC
S1130DF07948000059480000F0B5DE4657464E4693
S1130E004546E0B583B007000E00140000226B468F
S1130E10DA7100290CD0002C68D006204042002F43
S1130E205AD100239B46013398466B46DF1D09E0E7
S1130E30002858D0002C5CD001239B460023984600
S1130E406B46DE1D01222C492C482D4B98472B4B19
S1130E509A460125042199465A4653425A419346DB
S1130E60387853461B681A7E2A42FCD01A7E2A42DE
S1130E70FCD098621A7E0A42FCD04A469279944683
S1130E8006E0604601280DD0986AC0B2002A0DD051
S1130E901A7E0A42FCD0588B00220842F1D05983B2
S1130EA01E32EEE7986AC005C00DEFE73070013CD2
S1130EB0A4B25E4443465A425341FF18002CCFD19A
S1130EC00E4B196802220B7E1342FCD000220A4901
S1130ED00A480B4B9847002003B03CBC9046994607
S1130EE0A246AB46F0BD0F204042F5E70F2040423A
S1130EF0F2E70F204042EFE7601400206414002062
S1130F001151000030B591B0304C052323700023FB
S1130F106370A37001A901224A708B700A700520C6
S1130F202B4B98472278D1090023002904D1530977
S1130F30DB0128498C4663441F2111400122100023
S1130F408840986102AC22700023039304932374B5
S1130F506374A274E27423752332A354183A0021F3
S1130F6008A81D4B984780235B02E3601B4BA362D8
S1130F7001235B42E3621A4B23631A4B63631A4BEC
S1130F80A361220019491A481A4B984700281AD11C
S1130F90174D2C682000184B98471F2318401E3B00
S1130FA08340164A13602A68D369002BFCD1236856
S1130FB0022213432360124B98470120114B984798
S1130FC0002011B030BD06204042FAE76014002032
S1130FD0FD4900000044004199740000030004002E
S1130FE00300060003000700001BB70000080042CE
S1130FF064140020654E0000D54D000000E100E0BF
S1131000590D0000410D000010B5032806D10A89CE
S11310104B6808681900094B984710BDB822520064
S113102007490848084B98470848094B98470D203A
S1131030084B984701204042EFE7C046F90D0000F5
S11310401089000020890000F9750000348900002F
S1131050157700002D76000030B583B001AB002277
S11310601A709A705A70144B9847144D2C682000CB
S1131070134B98471F2318401E3B8340802211497D
S11310808B502A68D369002BFCD18F3323752376C8
S1131090236802229343236001A906200A4CA04737
S11310A001A90420A04701A90720A04701A9052000
S11310B0A047002003B030BD150D000064140020CB
S11310C0D54D000000E100E0FD490000002A06D0F3
S11310D082180B780370013001319042F9D17047C6
S11310E0002A04D08218017001309042FBD170476D
S11310F003000278002A07D00020013080B20133B7
S11311001A78002AF9D170470020FCE7024AD37804
S11311100133DBB2D3707047A01400207047000085
S113112000B583B000220A4B9A700120094B9847FE
S113113001A90948094B9847002801D003B000BD14
S11311400221019B194301910348054B9847F5E798
S1131150A0140020D50D000070100000F92D00002F
S1131160052E000010B50C4B9B780020002B0DD1F0
S1131170094B5B78002B03D1074B1B78002B06D15E
S1131180054A53780133DBB25370002010BD034B82
S113119098470028F4D0F9E7A0140020B5290000EE
S11311A0054B5B78002B04D0034A5378013BDBB238
S11311B0537000207047C046A014002010B50B4B9C
S11311C05B78002B04D0094A5378013BDBB253709F
S11311D0064B5B780020002B03D1044B1B78002BBB
S11311E000D110BD024B9847FBE7C046A014002075
S11311F04D290000F0B5DE46574680B589B08346D8
S11312008A460192009310AB80CB1E8812AB1D88D6
S113121007AA7F230B4053701070002F42D0330075
S11312200833EB185380724B07AA52889A4200D9AC
S1131230CDE0704B9847041E00D0BBE0002305931B
S113124002AAD3800493049B5A461A430492049A34
S113125053461B0213430493049A07AB5B881B0495
S11312601343049304996448644B9847041E54D16F
S113127000230493049B02221343049304996048BB
S11312805E4B9847041E48D10022059202ABDA80D7
S113129006331B889BB25B4A934246D85A4C5B4B3D
S11312A09A4614E0009B083307AA5380BBE7012049
S11312B0D047049B9B0728D502AB9A1DDB880133DA
S11312C09BB2138013889BB24E4A93422DD804A933
S11312D04B48A047002828D102AB06331B889BB299
S11312E0F422FF329342E4D902AB06331B889BB24B
S11312F001329342DBD84648464B98474648474B11
S113130098470D20464B9847D1E705A945483E4BE1
S11313109847041E09D000230593434B98472000A7
S113132009B00CBC92469B46F0BD059B002B3CD0FB
S1131330059B06930698082207A93C4B9847041E70
S1131340EBD1069B08330693019B002B0BD0069828
S1131350009A1900354B9847041EDED1069B009A6B
S1131360944663440693002F0ED0069B009AAD1A50
S1131370ED1806950698320039002C4B9847041E48
S1131380CBD1069BF3180693059B9B000493049B07
S113139002221343049304992548184B9847041ECA
S11313A0BBD1244B98470400B9E7224B9847032448
S11313B06442B4E7CB2252001F492048154B98479A
S11313C01F48164B98470D20154B9847A7E7CE2288
S11313D05200194919480F4CA04707AB5988044AD1
S11313E01848A0470D200E4B98470124644296E705
S11313F03C060000651100008C100000052E000062
S113140078100000E7030000F92D0000410D0000F2
S1131410C08C0000F9750000CC8C0000157700002A
S11314202D76000000041500A1110000792E0000A3
S11314306C100000BD1100006889000020890000C4
S1131440DC8C0000FC8C0000F0B5DE4657464E46AE
S1131450C0B586B00022D84B1A71002699469A4628
S113146049E1D54B059A9A605A46DA60042204A9E8
S11314700598D24B984704006B465B8A9BB26A4638
S11314805382002835D104AB5B889BB29B4505D0C1
S113149004AB5B885A46D31A042B37DC04AB1B78A5
S11314A0012B49D004AB1B78022B7BD004AB1B78F7
S11314B0042B00D193E004AB1B78062B00D1ABE0E6
S11314C004AB1B78072B00D1C3E004AB1B78052BBE
S11314D000D1DAE084229200B949BA48BA4B98475D
S11314E0BA48BB4B98470D20BA4B98470624644230
S11314F023E1EB225200B249B248B34B9847B648B5
S1131500B34B98470D20B34B984716E1EF22520096
S1131510AB49AC48AC4CA04704A94A8892B20B78BA
S1131520DBB2497800915946AC48A0470D20A94B3D
S113153098470624644200E19F4B1B69002B24D08A
S11315409D4B1B6904AA5078C0B25188059A083291
S1131550083989B29847984B9B78002B00D1CAE090
S11315609F4A97499748984CA04704AB1978C9B249
S11315705A78D2B29B48A0470D20964B98479A4B75
S11315809847041E00D0D8E0B5E0EA22FF328C4927
S11315908C488D4B984795488D4B98470D208D4B23
S11315A09847D8E7844B5B69002B0BD0824B5B696F
S11315B004AA5078C0B25188059A0832083989B211
S11315C09847C8E7F82252007D497E487E4B9847E9
S11315D087487F4B98470D207E4B9847BBE7764B57
S11315E09B69002B0BD0744B9B6904AA5078C0B242
S11315F05188059A0832083989B29847ABE7F8222E
S1131600FF326F496F48704B98477A48704B984740
S11316100D20704B98479EE7674B5B6A002B0BD0FD
S1131620654B5B6A04AA5078C0B25188059A0832A7
S1131630083989B298478EE7FF2252006049614811
S1131640614B98476C48624B98470D20614B984713
S113165081E7594BDB69002B0BD0574BDB6904AA9C
S11316605078C0B25188059A0832083989B298472F
S113167071E7624A52495348534B98476048544B68
S113168098470D20534B984765E74B4B9B6A002BBB
S11316900BD0494B9B6A04AA5078C0B25188059A72
S11316A00832083989B2984755E7832292004449A1
S11316B04448454B98475348454B98470D20454B64
S11316C0984748E7504A3E493E483F4B98474F4861
S11316D03F4B98470D203F4B9847022464422CE02F
S11316E04B4A37493748384CA04703994948A047E3
S11316F00D20384B98474B46DB78002B00D1AEE0E9
S113170053461B79002B00D0A9E00020424CA0478F
S1131710294AD378013BDBB2D3700120A0470425CA
S11317203E4F1AE03E4A26492648274B98473D48F3
S1131730274B98470D20274B9847002D00D181E077
S1131740394A3A491F48204EB0472A0021003848F8
S1131750B0470D201F4B9847013D03A93548B847B2
S11317600400061EDED10399CB07B9D501239943A2
S113177003913048304B9847041EDED101220E4BB2
S11317809A70039B9B041B0D9B469BD000230593DF
S113179005A92A48214B9847041E00D161E6CE22B0
S11317A0FF3207490748084B98472548084B984794
S11317B00D20084B9847C0E7A0140020112E00000C
S11317C07489000020890000F9750000F08A000087
S11317D0157700002D760000CC890000E489000014
S11317E016020000088B000021110000248A00006A
S11317F0448A0000688A0000888A0000050200000C
S1131800AC8A0000D08A00001D020000348B000066
S113181025020000488B0000D50D0000F92D0000C2
S11318202D020000648B00006B0200007C89000024
S1131830D08B000070100000052E00008410000002
S1131840A8890000094A0A490A480B4DA847210003
S11318500A48A8470D200A4B984726004BE730005A
S113186006B01CBC91469A46A346F0BD6702000030
S11318707C89000020890000F9750000888B000035
S11318802D76000070B514001D00002803D0002937
S113189001D0002A13D1002D02D0284B984770BDE7
S11318A0A322920026492748274B98472748284BCC
S11318B098470D20274B98470C204042EFE7264BD2
S11318C0DB689A421AD8244B9B68984227D386181F
S11318D0214A9368D2689B189E4220D822001F4B4D
S11318E098470028DBD11C4A9368D2689B189E4213
S11318F001D0002DD3D0114B9847D0E7A5229200F8
S11319000F491048104DA847134BDA6821001448BA
S1131910A8470D200F4B98470C204042BFE7114ABF
S113192007490848084B98470F48094B98470D202A
S1131930084B98470C204042B1E7C04621110000F3
S11319408C89000020890000F9750000088C0000D3
S1131950157700002D760000A0140020112E000041
S1131960288C00009A020000708C000070B50400FE
S113197007281FD88300164AD3589F46154B596130
S1131980002070BD134B19610020FAE7114B9961D7
S11319900020F6E70F4B19620020F2E70D4B596265
S11319A00020EEE70B4BD9610020EAE7094B99626E
S11319B00020E6E7084A094909480A4DA8472100DA
S11319C00948A8470D20094B98470C204042D8E706
S11319D048890000A0140020D20200009889000069
S11319E020890000F9750000B48C00002D760000F9
S11319F010B52C2200210648064B98470648074B91
S1131A00984707490320074B9847002010BDC0465C
S1131A10A0140020E11000000D1100007D0D000055
S1131A201D1100006D19000030B59FB004001500B1
S1131A302C2836D01B2844D0062852D00E282ED06D
S1131A4032285ED03D2800D16BE02F2800D178E009
S1131A50342800D18AE0112800D1AAE0132800D14B
S1131A60C0E0042800D1CFE0652800D1DEE00928D9
S1131A7000D1EDE02A2800D1FCE0272800D10BE1B9
S1131A80202800D11AE11022FF329B499B489C4D2B
S1131A90A84721009B48A8470D209B4B98471FB09F
S1131AA030BD0023042203A92800984CA047002835
S1131AB0F5D1974B1B68002BF1D003A92C30984724
S1131AC0EDE70023082203A92800904CA047002832
S1131AD0E5D18F4B1B68002BE1D003A91B3098473D
S1131AE0DDE70123302203A92800884CA047002801
S1131AF0D5D1874B1B68002BD1D003A9063098475A
S1131B00CDE70023182203A92800804CA047002811
S1131B10C5D17F4B1B68002BC1D003A93230984735
S1131B20BDE70123002200212800784CA0470028AB
S1131B30B5D1774B1B68002BB1D000213D309847BD
S1131B40ADE76422002103A8724B98470023642266
S1131B5003A928006D4CA0470028A0D16C4B1B683A
S1131B60002B9CD003A92F30984798E70023042228
S1131B7003A92800654CA047002800D08FE76648D9
S1131B805F4CA0470398030CFF210B40020A0A4054
S1131B900140000E00906148A0470D205A4B984721
S1131BA05B4B1B68002B00D179E700213420984758
S1131BB075E700225A4B1A700023043203A9280047
S1131BC0524CA047002800D069E703AB1A78554B64
S1131BD01A704F4B1B68002B00D160E703A911302A
S1131BE098475CE700232C2203A92800474CA04710
S1131BF0002800D053E7464B1B68002B00D14EE76A
S1131C0003A9133098474AE7002304221CA928009B
S1131C103E4CA047002800D041E73D4B1B68002BF9
S1131C2000D13CE71CA90430984738E7002304227C
S1131C301CA92800354CA047002800D02FE7344BBE
S1131C401B68002B00D12AE71CA96530984726E7BA
S1131C500123642203A928002C4CA047002800D0AB
S1131C601DE72B4B1B68002B00D118E703A9093093
S1131C70984714E70123042203A92800234CA04712
S1131C80002800D00BE7224B1B68002B00D106E78D
S1131C9003A92A30984702E70023042203A9280055
S1131CA01A4CA047002800D0F9E6194B1B68002BFA
S1131CB000D1F4E603A927309847F0E60023082270
S1131CC003A92800114CA047002800D0E7E603AB85
S1131CD09A8828000830012303990C4CA047002857
S1131CE000D0DCE60A4B1B68002B00D1D7E603A921
S1131CF020309847D3E6C046308D0000208900008C
S1131D00F9750000688E00002D760000851800002B
S1131D10A8020020E1100000C08C0000488E0000E2
S1131D20AE020020AC020020F0B5C64600B50700A4
S1131D3088461D00069C2C3296B2002B43D05B686B
S1131D40002B43D02B7A202B43D8002C44D03022B4
S1131D5000212000274B98472680012F07D0002F11
S1131D6009D0022F3BD1A37802221343A370A37896
S1131D7001221343A3706B7AFF2B22D0013BDBB209
S1131D800D2B2FD8E3704346013B032B2DD82C2376
S1131D904246E2542B7A23712A7A601D6968164BF5
S1131DA098472B68002B23D001222523E25429686D
S1131DB0200026300532104B9847002004BC904682
S1131DC0F0BDE370DFE70F204042F7E70F20404209
S1131DD0F4E70F204042F1E70C204042EEE70F20E9
S1131DE04042EBE70F204042E8E70F204042E5E79E
S1131DF00020E3E7E1100000CD10000010B5041E40
S1131E002BD0674B9847002836D02000644B984766
S1131E10202831D82123E35C013B0D2B3BD84123FF
S1131E20E35C002B07D14233E35C002B03D1433343
S1131E30E35C002B3ED03F23E35C012B00D1ACE0FC
S1131E40032B46D0022B00D098E02133E35C083BFF
S1131E500020382B00D982E010BD2822FF325149DE
S1131E605148524B98475248524B98470D20524B79
S1131E7098470C204042EFE79722520049494A48CC
S1131E804A4B98474D484B4B98470D204A4B98472F
S1131E900C204042E0E73622FF3242494248434B9D
S1131EA098474748434B98470D20434B98470C208D
S1131EB04042D1E79F2252003A493B483B4B984766
S1131EC040483C4B98470D203B4B98470C204042E0
S1131ED0C2E71F33E35C013B032B14D82323E35CE9
S1131EE0102293430A2B1DD04732FF322D492E482E
S1131EF02E4B984734482F4B98470D202E4B98472C
S1131F000C204042A8E74E22FF3226492648274BA0
S1131F1098472E48274B98470D20274B98470C206D
S1131F20404299E7243420001D4B9847002807D0ED
S1131F3020001B4B9847030000201A2B00D88BE786
S1131F405E22FF3217491848184B98472048194B0E
S1131F5098470D20184B98470C2040427CE7682294
S1131F60FF3210491048114B98471A48114B9847B3
S1131F700D20114B98470C2040426DE7B7225200C8
S1131F8008490948094B984713480A4B98470D20BC
S1131F90094B98470C2040425EE700205CE7C046AE
S1131FA0F11000003C8D000020890000F97500004C
S1131FB0908D0000157700002D760000A08D0000A4
S1131FC0B08D0000BC8D0000E88D0000D48D0000B1
S1131FD0008E0000148E00002C8E000070B5531E7D
S1131FE0DBB2002A33D00133C21820241EE0273B81
S1131FF0DBB20F2B2DD81B01DBB203706D78303DA3
S1132000EDB2092D0AD92543EDB22E00313E052E3D
S113201002D90F20404217E0273DEDB20F2D1BD807
S11320205B1903700130023190420ED00D000B7821
S1132030303BDBB2092BDCD92343DBB21E00313E3B
S1132040052ED4D90F20404270BD0020FCE70020AB
S1132050FAE70F204042F7E70F204042F4E7000080
S113206010B5044B9847002802D10122024B1A7084
S113207010BDC046C12F0000AD020020F0B58FB0E6
S113208001220F236B441A70002867D00268354B75
S11320901A600022344B1A700F206844334B98475F
S11320A0041E02D020000FB0F0BD0222304B1A7083
S11320B00020304B9847041E49D12F4901202F4B53
S11320C0984704AE30002E4B984704002D482E4DFF
S11320D0A847B37972793179308C00902B48A8479E
S11320E00D202B4FB8472748A84726226A441A21B7
S11320F069442848A8470D20B8472248A847737A5E
S1132100327AF1792448A8470D20B8471D48A847DA
S11321100123062213212148A8470D20B847194856
S1132120A8471F4A1F492048A8470D20B847230045
S11321300D33B7D1F02252001C491D48124B984769
S11321401C481D4B98470D20114B9847AAE70022C5
S1132150074B1A700020194B9847A3E70C246442DC
S1132160A0E7C046A8020020AE02002031300000E3
S1132170AD020020F1190000291A00006D190000B9
S1132180E12E0000C08C0000F97500007C8E000078
S11321902D760000A48E0000C08E0000E48E0000A6
S11321A0FC8E0000088F0000148F0000588D000082
S11321B0208900002C8F000015770000B930000042
S11321C010B50400044B9847002800D010BD20002F
S11321D0024B9847FAE7C046612000007D200000CA
S11321E010B5014B984710BD4914000010B590B0CC
S11321F00B0004AA009200220121084CA0470028E9
S113220001D010B010BD002302930193009330332A
S113221004AA3B210130024CA047F2E7291D00002B
S1132220F511000070B590B0141E36D01368002B61
S113223036D05279013A032A35D8227910239A43A9
S11322400A2A33D104AB00930B0006320321194D43
S1132250A847051E02D0280010B070BD1020164BF0
S11322609847061EF7D06379013B03702279520820
S1132270427021680230114B984730230293203B6F
S113228001930096203304AABB2101200C4CA047E3
S1132290050030000B4B9847DDE70F256D42DAE768
S11322A00F256D42D7E70F256D42D4E70F256D4208
S11322B0D1E7C046291D00004D740000DD1F000059
S11322C0F51100006174000070B590B0151E4CD07B
S11322D004AB00930B006C220221294CA047041E7E
S11322E002D0200010B070BD6C20264B9847061E0B
S11322F0F7D06C220021244B98472968002917D075
S11323006B680F246442002B03D030001F4B9847A6
S1132310E7E740333370741C202220001C4B98479D
S1132320002825D13278296820001A4B98470CE000
S11323306968002916D02A7A402A02D90F246442F7
S1132340E3E73270701C134B9847302302933C33FD
S1132350019300963C3B04AABB2101200E4CA047EC
S11323600400D2E70F246442CFE70F246442B8E7A5
S1132370327829682000074B98470F246442C4E749
S1132380291D00004D740000E1100000617400007C
S1132390DD1F0000CD100000F5110000F0B5CE46A1
S11323A0474680B591B0141E00D170E01368002B2D
S11323B025D06368002B00D16CE0A368002B00D10A
S11323C06BE0A589E389EA18842A00D968E0228AA7
S11323D080267600B24266D8ED180C355519ADB298
S11323E004AB00930B002A000421304EB047061EB4
S11323F007D0300011B00CBC90469946F0BD9381D3
S1132400D7E728002A4B9847071EF2D00C2398469A
S113241080442A000021274B984701233B70A37C6A
S1132420002B01D081233B70E37C002B03D03B784D
S1132430402213433B7000237B702168002924D081
S1132440227B7A7040461C4B98477E784644E2894A
S11324507A8061683000184B99469847788830181C
S11324604346C31ABB80228AFA80A168C847302336
S113247002930195009704AABB2101200F4CA047A9
S1132480060038000E4B9847B3E74646DFE70F26B1
S11324907642AEE70F267642ABE70F267642A8E7F0
S11324A00F267642A5E70F267642A2E7291D0000F3
S11324B04D740000E1100000CD100000F511000083
S11324C061740000F0B58BB01E0010AB1D8811AB19
S11324D01C7807AB00270797089019725D72634256
S11324E05C416400202920D9022A3AD031D9032A38
S11324F04ED0042A5BD1002E62D01422002102A8FF
S1132500314B9847039637001537049730002F4D09
S1132510A84702ABD8813800A84702AB18821A003A
S113252007A920002A4B984719E0019100250127AB
S11325300139C9B2FF2905D0435C002BF8D10191C0
S11325403D00F5E7002DCFD007AB69460979197234
S1132550CAE7012A2BD107A920001E4B98470BB0CC
S1132560F0BD002E26D000230293039302AA137217
S11325703000164B9847402808D0039602AB1872D7
S113258002AA07A92000144B9847E8E70296F7E748
S1132590002E12D0B31C02937378013B02AA13716C
S11325A03378537107A920000C4B9847D7E70F20C5
S11325B04042D4E70F204042D1E70F204042CEE70B
S11325C00F204042CBE7C04699740000F110000090
S11325D09D230000ED210000C922000025220000F7
S11325E030B583B006AC2488002501950094024CD4
S11325F0A04703B030BDC046C524000010B584B068
S1132600002302930193009300222B210120024C0A
S1132610A04704B010BDC046F511000010B586B047
S11326200100062204A8074B984700230293019354
S11326300093083304AA02210120034CA04706B0EA
S113264010BDC046CD100000F511000000207047F9
S113265070B504000D00074B9847002800D070BDEA
S113266029002000044B98470028F8D1034B9847D1
S1132670F5E7C04665110000C52C0000BD1100003F
S113268010B50400064B9847002800D010BD200068
S1132690044B98470028F9D1034B9847F6E7C04606
S11326A065110000592D0000BD11000010B590B057
S11326B00A1C302900D930220132D2B2010004A808
S11326C0064B98470023029301930093303304AAE6
S11326D007210120024CA04710B010BDCD1000000E
S11326E0F5110000F0B5BBB004000D001600002881
S11326F03CD0204B9847002803D00C2040423BB0EC
S1132700F0BD8822210004A81B4FB847210088315E
S11327100C22D9206844B8472800184B9847002851
S113272016D0002D14D004AC4022290026A8124B48
S11327309847C823E6540023114A13700293019367
S11327400093D8332200882101200E4CA047D6E7FD
S11327500D4A0E490E480F4B98470F480F4B9847A8
S11327600D200F4B98470C204042C8E70C204042F4
S1132770C5E7C046FD1D0000CD100000F1100000AB
S1132780AE020020F51100003E0600006C8D000032
S113279020890000F9750000488F000015770000BB
S11327A02D760000F0B5A9B005000191170003AC27
S11327B08822010020000A4EB04741350422290036
S11327C025A8B0470422290026A8B0470022902358
S11327D0E2543A0001992000024B984729B0F0BD19
S11327E0CD100000E5260000F0B583B080256D0013
S11327F00543A5246401084F084E29002000B8476A
S11328000023019301A92000B0470028F5D1019BC2
S11328109D42F2D103B0F0BD052E0000F92D000059
S113282000B583B00023019301A91148114B9847C7
S1132830002801D003B000BD80214900019B194349
S113284001910B480C4B98470028F3D101A9D020E3
S11328504001084B98470028ECD180214902019B94
S113286019430191D0204001034B9847E2E7C04649
S113287008140000F92D0000052E000010B582B0E8
S1132880284B1C68002C04D0264B1C68200002B086
S113289010BD190080204001234B9847002803D025
S11328A00022204B1A60F1E701A920481E4B9847EB
S11328B0002803D000221B4B1A60E7E7194B1B6862
S11328C01B4A93420ED01B4A934212D01A4A934297
S11328D01CD01449194A0B681A40A023DB02134385
S11328E00B60D1E7019B012BF3D0154A0D4B1A6005
S11328F0EFE7019B032BECD0042B03D0114A094BC7
S11329001A60E6E7104A074B1A60E2E70549EC2033
S11329108003054B98470028DBD00022014B1A6046
S1132920B4E7C046B0020020F92D0000F413000003
S1132930A0021000B0021000F0001000FFFFF0FF32
S1132940A1021000B2021000B102100030B583B031
S1132950164C012501A91020A04700281CD1019B79
S11329602B42F7D101A90130104B9847002813D10D
S113297001998B0707D502239943019101300C4B30
S11329809847002808D101A90B20084B9847002834
S113299002D10199CB0701D403B030BD012399437F
S11329A001910B30024B9847F6E7C046F92D000021
S11329B0052E0000F0B583B000230193009301A914
S11329C00B20284B9847041E30D10199CB0706D41D
S11329D0012319430B20244B9847041E26D101A937
S11329E00120204B9847041E20D101998B0720D544
S11329F005251C4F1D4E69460F20B847041E20D1E3
S1132A00009B5B072BD40220B047013D002DF2D17F
S1132A10AD22520016491748174B98471748184BD0
S1132A2098470D20174B984704246442200003B0B4
S1132A30F0BD0223194301200B4B9847041ED7D045
S1132A40F4E7A82252000A490A480B4DA847009A05
S1132A5021000D48A8470D200A4B9847E6E70B4B89
S1132A609847E3E7F92D0000052E0000410D000012
S1132A705C8F000020890000F9750000A48F00001D
S1132A80157700002D7600008C8F0000E12D0000EA
S1132A90F0B5C64600B58046364D374C374E280053
S1132AA0A047002802DB0120B047F8E73448324B46
S1132AB09847C30746D54346022B26D04346032BEB
S1132AC02DD04346042B33D02E492F482F4B984703
S1132AD000242F4B98470005000D2E4B98422DD90A
S1132AE0022020432C4B98472C482D4CA0472549C5
S1132AF02C48A0470D202C4B98472C492C48234B9D
S1132B009847002004BC9046F0BD2A492A481F4C2F
S1132B10A047802149031C48A0470024D9E7254940
S1132B2025481A4CA04700211748A0470024D0E7A5
S1132B3014491548154B98478024CAE72000164BC2
S1132B409847D1E701200D4B984719480A4B9847FD
S1132B508024A401194D094F074EA842ABD001208F
S1132B60B8471348B047013C002CF6D10520404239
S1132B70C8E7C04614100000ED2D0000410D000010
S1132B80BC070200611330138C100000052E0000F6
S1132B907D2800009F030000E9270000C08C00008E
S1132BA0F9750000C08F00002D760000612F52EFF0
S1132BB00C000C007DD51C3CAC0702009ED0AD106F
S1132BC070B582B0154B0193154B00930238012860
S1132BD011D98024A4010020124E134D009B984269
S1132BE00ED00220B0470198A847013C002CF5D133
S1132BF00520404209E00D4B01930D4B0093E8E79B
S1132C00009A074B00209A4201D002B070BD002107
S1132C100248084B98470020F7E7C0468C10000094
S1132C2036265302410D0000ED2D0000AC070200D2
S1132C30C3C15DD7052E000010B582B000230193F7
S1132C4001A9A0204001144B9847041E15D1134933
S1132C50019B19400191A0204001114B9847041E8B
S1132C6016D0104A10491148114B98471148124B7D
S1132C7098470D20114B98470AE0114A0A490B481E
S1132C800B4B98470B480C4B98470D200B4B984720
S1132C90200002B010BDC046F92D0000FFFBFFFF6D
S1132CA0052E000007020000688F00002089000044
S1132CB0F9750000748F0000157700002D76000070
S1132CC00102000070B586B006000D000822002144
S1132CD001A81B4B984705A91A481B4B9847041E8B
S1132CE006D0002D01D000232B70200006B070BD4B
S1132CF0C0208002059B1843082201A9134B984762
S1132D00041EEED101980590030C05D10622002182
S1132D1030000F4B9847E4E7000C0590C0239B025A
S1132D201843062203A9094B98470400062203A965
S1132D303000084B9847002DD7D001232B70D4E7DF
S1132D409974000008000C00F92D0000112E0000F9
S1132D50E1100000CD10000030B587B00500082256
S1132D60002101A8134B984705A91348134B984712
S1132D70041E02D0200007B030BDC0208002059B95
S1132D801843082201A90E4B9847041EF2D1019B57
S1132D901804000C0590C0239B021843062203A9C3
S1132DA0074B98470400062203A92800054B9847BF
S1132DB0E0E7C0469974000008000C00F92D0000FB
S1132DC0112E0000CD10000010B5014B984710BD26
S1132DD0050F000010B5014B984710BD59100000B5
S1132DE010B5014B984710BDA937000010B5014B31
S1132DF0984710BDE137000010B5014B984710BD4E
S1132E00F537000010B5014B984710BD0D38000090
S1132E10F0B5D6464F464646C0B582B08046894690
S1132E201500134B1F88083FBBB201931E0004001A
S1132E309A421AD90F4B9A46371A4346E11A494423
S1132E40019A2000D047002809D1AD1B3919A419D3
S1132E50B542F2D8AAB249442000064B984702B0C2
S1132E601CBC90469946A246F0BD0021F2E7C0463C
S1132E70080000204D390000F0B5D6464F464646BE
S1132E80C0B582B0804689461500134B1F88083FA1
S1132E90BBB201931E0004009A421AD90F4B9A4602
S1132EA0371A4346E11A4944019A2000D0470028C2
S1132EB009D1AD1B3919A419B542F2D8AAB24944B3
S1132EC02000064B984702B01CBC90469946A24687
S1132ED0F0BD0021F2E7C04608000020A93A000036
S1132EE070B584B00400002303930822002101A8D4
S1132EF02D4B9847002C45D02822002120002B4B35
S1132F00984703A92A482B4B984700283BD1039B99
S1132F10002B3AD0C02080021843082201A9264B76
S1132F20984700282FD1029B1804000C03902FD03F
S1132F30C0239B021843282221001F4B98470028D6
S1132F4021D121790902A2790F231A400A43617918
S1132F500901FF2529400A43E1790902667A3340D1
S1132F600B43217A09010D402B43002A13D0002B77
S1132F7014D012498B4214D89B235B019A4202D885
S1132F800D3800E0002004B070BD0C204042FAE788
S1132F900C204042F7E70C204042F4E70C2040426A
S1132FA0F1E70D204042EEE799740000E1100000C3
S1132FB008000C00F92D0000112E00006113000020
S1132FC070B500200F4B9847041E0ED10E480F4DCC
S1132FD0A8470F4B984701000E48A8470D200E4BF9
S1132FE098470E4B9847200070BD862252000C492A
S1132FF00C48064B98470C480C4B98470D20064B41
S11330009847F0E7C92D0000C08C0000F975000056
S11330107D2800008C9000002D76000025380000EB
S1133020D88F000020890000709000001577000000
S113303070B5002827D005786B1E032B00D9012515
S11330402800124B9847041E17D12800104B9847AC
S1133050041E12D1023D012D13D90E4B9847041EB4
S11330600FD0A82252000C490C480D4B98470D482C
S11330700D4B98470D200D4B98470D4B98470D4B22
S11330809847200070BD0125DAE7C046912A000068
S1133090C12B000021280000EC8F000020890000D3
S11330A0F97500009C900000157700002D76000053
S11330B0D52D0000D137000010B51C4B9847041ED5
S11330C00BD100201A4B9847041E14D1194B984772
S11330D0041E1DD1184B98470BE08222FF3217497A
S11330E01748184B98471848184B98470D20184B09
S11330F09847200010BDC422520010491048114BBB
S113310098471448114B98470D20114B9847F0E706
S1133110C722520009490A480A4B98470E480B4BEC
S113312098470D200A4B9847E3E7C046392C000026
S11331309D460000D52D0000D1370000009000000E
S113314020890000F9750000109000001577000038
S11331502D760000309000005490000000B585B03A
S113316001AB019000220292198119000320024B45
S1133170984705B000BDC0460910000070B584B082
S113318008AC257801AC20703F30C4B20E2C00D9B5
S113319084E0A0004F4C2058874601AB0A0C5A70BB
S11331A00A0A9A70D97005214B4B1B78002B77D0F3
S11331B00139C9B283E00B0ADBB2002D07D101AAA1
S11331C0537001AB99700022DA700521ECE780227C
S11331D05242134301AA5370F3E701AB00225A7021
S11331E09A70DA700521DFE701AB00225A709A70F9
S11331F0DA700521D8E701ABFF225A709A70DA70B1
S11332000521D1E701AA080C5070080A9070D1700A
S1133210190A117153710721C6E701AA080C5070ED
S1133220080A9070D170190C1171190A51719371B7
S11332300821B9E70B0ADBB2002D0CD101A84370B9
S113324001AB9970110ED970110C1971110A5971D1
S11332509A710821A8E780204042034301A84370E3
S1133260EEE701AB080C5870080A9870D970110E7B
S11332701971110C5971110A9971DA71092193E7C5
S11332809022520015491648164B98471648174B7A
S113329098470D20164B9847002317E0002315E0AC
S11332A04E1E01AA95197F23124C5B0010784340EF
S11332B0E35C0132AA42F8D15B0001AA935589B2BA
S11332C001A80D4B984701230028D9D1180004B058
S11332D070BDC046BC900000B4020020FC90000009
S11332E020890000F97500008C9500001577000016
S11332F02D760000889100005D31000000B585B096
S113330001AB002201920290198119000320024BA3
S1133310984705B000BDC04609100000F0B5C64688
S113332000B582B00700CF282BD003003B33DBB2BB
S1133330012B26D90B246B46DE1D264B9846012112
S11333403000C047051E25D13378BB4230D0013C44
S1133350E4B2002CF3D10B346B46DE1D1D4F01216A
S11333603000B847002825D13378002B2FD0013CFA
S1133370E4B2002CF3D10125280002B004BC90462D
S1133380F0BD01216B46D81D124B9847002500283B
S1133390D0D0F1E75C22FF320F491048104B984718
S11333A01048114B98470D20104B98470025E3E730
S11333B00B24D1E76A22FF3207490848084B984793
S11333C00848094B98470D20084B9847D4E7012536
S11333D0D2E7C046FD3200001491000020890000AD
S11333E0F9750000B8950000157700002D760000EF
S11333F0F0B5DE4657464E464546E0B587B00190E7
S11334008946029200239A4680239B019B466A4682
S1133410D3813C4B98462FE0BE2292003A493B4868
S11334203B4B98473B483C4B98470D203B4B9847B8
S11334300025280007B03CBC90469946A246AB46FE
S1133440F0BD002C2EDD019B5344180039002D4B98
S11334509847041E34D1029B002B03D1304B1B78B8
S1133460002B39D05346FB181BB29A464B46DF1B40
S1133470BBB29946002B43D04F46D94501D96B4680
S1133480DF89BFB20A2404ABDE1C01213000C0472F
S1133490051EC1D133781B090F2BD2D0013C24B2B5
S11334A0631CF2D1C122920017491848184CA04756
S11334B004ABD9781B48A0470D20184B9847B8E7B0
S11334C0194A11491148124B98471848124B98470A
S11334D00D20124B9847ACE7022105A8094B9847E9
S11334E00028BFD0C622920007490848084B9847D5
S11334F00F48094B98470D20084B9847250098E73B
S1133500012596E7FD32000020910000208900008B
S1133510F9750000EC950000157700002D76000089
S1133520B4020020209600000D0300005096000015
S113353080960000F0B5D6464F464646C0B586B0E4
S11335400390049130280FD8304B1F78FBB20593B9
S11335500023302203998A425B41DBB29A460A2552
S11335602B4B9846D14633E02A4B1F78EEE705985B
S1133570294B98470400012841D0284A2849294862
S1133580294EB04703992948B0470D20284B984746
S11335900120284EB0470023009300220021CF20B1
S11335A01B4FB847CF201C4B9847EA2292001C4976
S11335B01C481D4FB847049B039A29001E48B8476E
S11335C00D201B4B98470120B047013D002D16D01C
S11335D04B4600930423049A039F39000598C0477F
S11335E004000128C3D0154A0D490E480E4EB047B9
S11335F039001348B0470D200D4B9847C8E7200009
S113360006B01CBC90469946A246F0BDF890000056
S11336107D310000F99000001D3300009503000087
S11336204091000020890000F9750000789700009F
S11336302D760000410D0000B09700008F030000BC
S11336404C970000F0B5DE4657464E464546E0B579
S113365087B002908B46FF280FD8414B1F78FBB2EE
S113366003930023FF2202998A425B41DBB29A460C
S11336700A253C4B9846D14631E03B4B1F78EEE798
S113368003983A4B98470400012840D0384A3949F6
S113369039483A4EB04702993948B0470D20394B62
S11336A098470120384EB0470023009300220021A0
S11336B0CF202C4FB847CF202C4B9847334A2D4965
S11336C02D482E4FB847029A29003148B8470D209B
S11336D02C4B98470120B047013D002D38D04B4674
S11336E0009304230022029F39000398C04704007A
S11336F00128C5D08222D2001E491F481F4EB04760
S113370039002448B0470D201E4B9847C9E74A4664
S1133710042105A8204B9847040001280BD01F4A18
S113372014491548154B98471D481E4B98470D20C2
S1133730144B9847B5E705AA53781B0291780904FE
S11337400B4311780B43D278120613435A46136085
S1133750200007B03CBC90469946A246AB46F0BD5B
S1133760FA9000007D310000FB9000001D33000042
S1133770160400006091000020890000F975000023
S1133780E09600002D760000410D00003504000095
S113379034970000B4960000F13300001D040000CB
S11337A0149700001577000010B582B00023009331
S11337B000220021CF20044CA047CF20034B984780
S11337C0002002B010BDC0467D3100001D33000052
S11337D00022024B1A7000207047C046B402002039
S11337E000B583B001A9024B9847019803B000BD0E
S11337F04536000010B5044B98470023012801D139
S1133800180010BD063BFBE74536000010B5044B1D
S113381098470023012801D1180010BD063BFBE79F
S11338203535000010B582B000230093354A13707B
S113383069463548354B9847002828D0314B1B78CA
S1133840002B0DD17C33009999432C3B19430091F3
S11338502D482F4B9847041E3AD00122294B1A7049
S113386001A980204001294B984700283CD0264CD0
S11338702000284B984770230100994350200143AE
S11338802000254B98470024200002B010BD0122DF
S11338901C4B1A709822D20020492148214B98478A
S11338A02148224B98470D20214B984769461648DA
S11338B0164B9847041EC1D11E4A18491848194B83
S11338C098471D48194B98470D20194B9847DBE73B
S11338D01A4A12491248134B98471948134B9847F0
S11338E00D20134B9847CFE7164A0C490C480D4B53
S11338F0984715480D4B98470D200D4B98470624C3
S11339006442C1E7B402002024E800004536000008
S113391035350000E13700000D3800007C910000CF
S113392020890000F97500008892000015770000D6
S11339302D760000C3040000D8920000CD040000DE
S113394004930000D704000038930000F0B5DE466D
S113395057464E464546E0B587B00290039116009F
S11339600A2500239B4600243E4B9846A94637E08F
S113397001239B46013635E0C8203B4B984701287C
S113398045D03A4A3A493B483B4FB84702993B48ED
S1133990B8470D203A4B984701203A4FB847009456
S11339A0230022002100CF202E4DA847CF202E4BEC
S11339B09847354A2E492F482F4B9A46984733004B
S11339C0029A49463148D0470D202D4B9847012093
S11339D0B84701235B429C46E1444B46002B38D058
S11339E0012EC5D0009433002200029D2900C82076
S11339F0C0470128C0D0264A1D491E481E4FB8475B
S1133A0029002448B8470D201D4B9847C4E75B465E
S1133A10002B16D005AF2200310038001E4B98470A
S1133A203B78039A1370012811D01C4A104911489D
S1133A30114B98471A481B4B98470D20104B984739
S1133A40AAE7220031000398134B9847EBE70020C4
S1133A5001E00620404207B03CBC90469946A2468D
S1133A60AB46F0BD7D3100001D3300005C04000056
S1133A707091000020890000F97500008C9300000B
S1133A802D760000410D00007D040000EC93000041
S1133A90560400005C930000F13300006C04000045
S1133AA0C493000015770000F0B5DE46474680B5A4
S1133AB089B004908B4603920A268027BF016B4687
S1133AC0DF8235002DE0013303932DE0824A8349E0
S1133AD08348844CA04731008348A0470D20834B82
S1133AE098470120824CA047002300930022002124
S1133AF0CF20804EB047CF207F4B98477F4A7749ED
S1133B007748784EB047039B049A29007C48B04715
S1133B100D20764B98470120A047013D002D00D190
S1133B20D2E0039B012BCED000230093039B002201
S1133B30049E3100C7206F4CA0470128C6D1C7207E
S1133B406D4B984701280BD06E4A64496448654C14
S1133B50A04704996C48A0470D20644B9847C0E7E0
S1133B60002207AB1A80039C0026A84635002600D5
S1133B7021E00023B7425B4102330B2004AA9446A0
S1133B806044102252421343037001215F4B984753
S1133B9000281DD15B46581921005C4B984700282A
S1133BA02ED15B4B1B78002B37D065192DB2361BF9
S1133BB0B6B2002E52D0341CBE4201D96B46DC8A08
S1133BC0A4B2002DD5D10323BE42D6D9023BD4E7FB
S1133BD04546504A50494248424B98474F48504BFB
S1133BE098470D20414B98474E4A3C493C483D4B31
S1133BF098474D484A4B98470D203C4B984770E7EF
S1133C0045464A4A44493648364B98474848444B07
S1133C1098470D20354B9847E6E7022107A83B4B10
S1133C2098470028C1D04546D72292003A492C48EB
S1133C302C4B98473F483A4B98470D202B4B9847BD
S1133C40D2E79A2252003C492548264B98473B48E4
S1133C50334B98470D20254B984727E045462C4B7E
S1133C601C78631E9C410234A1B207A8344B9847C8
S1133C700028E6D108AB1B19053B1B78002B06D1A5
S1133C8008AB9C466444063C2378C32B1AD03C22E0
S1133C90FF3229491248134CA04707A98B784A7868
S1133CA009782848A0470D20104B9847264A0B490D
S1133CB00B480C4B98471C48194B98470D200B4B4D
S1133CC098470EE7002001E00620404209B00CBCF2
S1133CD090469B46F0BDC046C303000050910000CF
S1133CE020890000F9750000089400002D7600007A
S1133CF0410D00007D3100001D330000EB03000086
S1133D00EC930000C9030000389400005D3100000A
S1133D10B4020020490300003091000070940000B8
S1133D2015770000D90300006495000052030000D9
S1133D30A8940000DC940000049100001495000095
S1133D40FD32000034950000E1030000F0B5DE46CA
S1133D5057464E464546E0B585B001900E000292A6
S1133D601D000EAB1C88002C64D0030135495B5840
S1133D70002B5FD00101334B5B189B889BB2002B57
S1133D8058D0304B5B189B7A012B53D1F4802D4BC8
S1133D909B468B445B460A229046D8448A4600954B
S1133DA0039315E0250001231CE0013300220021C8
S1133DB00020254CA0473DE02448254DA84721007C
S1133DC02448A8470D20244B984733E0002C31D0D9
S1133DD05B469B88E31A1BB2002BE3DD039B9D88A3
S1133DE0ADB20023174A514689582A000098164F4D
S1133DF0B8470028E0D1134B5246D3583360B580FE
S1133E00F3885B1BF380154B1B68002B05D0134B09
S1133E101B683200029901989847641BA4B2009B66
S1133E209C46AC446346009343461B78002BCDD19B
S1133E30002CBAD105B03CBC90469946A246AB468C
S1133E40F0BDC046D014002085180000C08C0000CE
S1133E50F9750000CC9700002D7600008015002035
S1133E60F0B5D6464F464646C0B59AB00D0014008C
S1133E70412839D0542837D0422853D043286AD017
S1133E80442800D1AFE04B2800D1ACE04A2800D14F
S1133E90CFE0462800D1E5E0482800D10EE14D28C6
S1133EA000D1DCE0452800D12CE1472800D14DE1C8
S1133EB007254C2800D126E152282DD101231422B4
S1133EC009A92000A24CA047002825D1A14B0A9A99
S1133ED01A601B68002B1FD09E4B1C6809AB1A7C10
S1133EE00B990998A04717E00023042209A9200090
S1133EF0974CA04700280FD109AB5A7805AB1A702C
S1133F00954B1B68002B07D0934B1B6809AA002014
S1133F10105605AA012198471AB01CBC9046994630
S1133F20A246F0BD0023042209A92000884CA04722
S1133F300028F1D109AB5A7805AB1A70864B1B687F
S1133F40002BE9D0844B1B6809AA0020105605AA4F
S1133F5002219847E0E700230C2205A920007C4CAD
S1133F60A0470028D8D105AB09229A56002A24DBA1
S1133F70180008215956794B09015918C97AC9B250
S1133F8014011B19D972012199724189083989B226
S1133F90198173490B8801339BB20B800B889BB248
S1133FA0002B03D10B8801339BB20B806C4B198817
S1133FB089B21001694B1B18D98009AB1A7002220F
S1133FC09A8005AA5188D980069A0B92624B1B6885
S1133FD0002BA1D0604B1B6805AA0820105609AA23
S1133FE00421984798E70023042209A92000584C8B
S1133FF0A047002800D08FE709AB0020185605AA77
S113400010705B785BB25370002B07D109AB5B88EF
S1134010083B9BB20101514A521813814E4B1B6855
S1134020002B00D178E74C4B1B6805AA0521984763
S113403072E70023442209A92000454CA047002828
S113404000D069E7474B1B68002B00D164E7454B60
S11340501B68199A0392110009A898475CE7062384
S11340609A4601E006239A460023102205A920005F
S1134070374FB847002800D04EE705AA0C20105649
S1134080D38907013549C91900270F730826975F9B
S1134090B8465789B94609AF56887E81069A0C926C
S11340A0CA8892B293420CD0102D00D834E7012371
S11340B0002200210020264CA0472DE709239A4620
S11340C0D2E74346002B01DDA8450FDB09AB42468E
S11340D09A8000230993204B1B68002B00D11BE717
S11340E01D4B1B6809AA5146984715E723004B440A
S11340F0424669468A818A890092524639001A4C9E
S1134100A04709E707250023082209A92000104C2D
S1134110A047002800D0FFE609AB002018569A8873
S1134120598805AB198001010C4B5B18DB889BB2E5
S11341309A4200D0F0E6084B1B68002B00D1EBE656
S1134140054B1B6805AA29009847E5E60825DAE728
S1134150851800008415002080150020D01400204C
S1134160B6020020881500204D3D000010B50A4B12
S11341701B78002B00D010BDB02200210748084B4B
S1134180984708490220084B98470122024B1A70AD
S11341900022064B1A80EEE7B5020020D01400205E
S11341A0E1100000613E00006D190000B60200201D
S11341B0024B1860024B19607047C04680150020FE
S11341C088150020F0B5D646474680B589B00592DB
S11341D0022800D09CE001290AD0022900D170E015
S11341E001256D42280009B00CBC90469A46F0BDEA
S11341F0494C2778FFB22678F6B220780130063190
S1134200464B9847C9B221703201454B9B189B7AA3
S11342100625002B18D0404E404B9A46404B9846FA
S11342203778FFB23478E4B2307801300721D047D0
S1134230C9B23170230143449B7A002B07D0013D5E
S1134240EDB2002DECD1CBE7354BD41802E02401BC
S1134250334BE4187DB2002DC4DB10220021200072
S1134260304B98470123A3722F4A138801339BB222
S1134270138013889BB2002B03D1138801339BB2A4
S11342801380294E33889BB2E3802848284FB847CF
S1134290328892B229002748B8470D20264B984708
S11342A0059BDB079ED507AA15702123E372002323
S11342B00293019300930433502102201F4CA04722
S11342C090E71F4B1D78EDB21C7824011D4AA418F9
S11342D01978013103220A401A70A37A002B14D0F2
S11342E003221749174F03200D78EDB20C782401EF
S11342F0E4190B78013303400B70A37A002B04D02C
S1134300013AD2B2002AEFD16AE707356DB2A2E7CB
S113431001256D4266E7C046B8020020997300008B
S1134320D0140020E1100000B6020020C08C000070
S1134330F9750000F89700002D760000F5110000D3
S1134340B90200204015002070B588B0040000298F
S11343502BD000282CDB00011A4B1B189B7A012B55
S113436029D1002A2AD0174B1B18DB7A4126DB07F8
S113437000D5133605AD2C7208222800124B98473D
S11343802401104B1C19E3886B81002302930193D1
S113439000930C332A00310002200C4CA047002863
S11343A001D00920404208B070BD06204042FAE71F
S11343B006204042F7E706204042F4E70620404248
S11343C0F1E7C046D0140020CD100000F511000024
S11343D010B586B000281CDB0201114B9B189B7A98
S11343E0012B19D105AA1070517000010C4B18183B
S11343F0C388538000230293019300930433422122
S11344000220084CA047002801D00920404206B0F1
S113441010BD06204042FAE706204042F7E7C046B6
S1134420D0140020F5110000002807DB0001064B22
S11344301818837A012B04D10020704706204042CB
S1134440FBE706204042F8E7D014002070B588B09E
S1134450041E30DB002931D000011D4B1B189B7A50
S1134460012B2ED1002A2FD0194B1B18DB7A44269E
S1134470DB0705D5164B1B18DA7A05AB5A720736DB
S113448005AD2C7208222800124B98472401104BCA
S11344901C19E3886B8100230293019300930C336E
S11344A02A00310002200C4CA047002801D009202A
S11344B0404208B070BD06204042FAE70620404260
S11344C0F7E706204042F4E706204042F1E7C04601
S11344D0D0140020CD100000F511000030B589B0D3
S11344E0002836DB002937D0AF23DB009A4236D8C8
S11344F004011E4B1B199B7A012B33D104AB18709A
S11345005A802500194C6419E4889C81502506289A
S113451000DD0C3D0401154B1B19DC7A4523E4072F
S113452005D50001114B18180589ADB24C23802024
S11345301843029501920091102304AA010002205D
S11345400B4CA0470023002800D00E3B180009B0F4
S113455030BD06235B42F9E706235B42F6E70623F8
S11345605B42F3E706235B42F0E7C046D014002029
S1134570F511000030B587B0002834DB002935D0B0
S1134580002A36D005011E4C6419A47A012C33D1BB
S11345901B4C29516419A280217B002200291DD1C2
S11345A001212173E27A4531D20700D50731002B6E
S11345B017D1013B049304AA10710001104B181881
S11345C0C388D3800023029301930093083302200D
S11345D00C4CA0470022002800D00E3A100007B06F
S11345E030BD0493E7E706225242F7E7062252421F
S11345F0F4E706225242F1E706225242EEE7C046B1
S1134600D0140020F511000030B587B004001C4818
S11346101C4DA84721001C48A8470D201B4B984758
S1134620002C27DB22011A4B9B189B7A012B24D1E7
S113463005A90C70164B9B18DA884A80DB7A49214D
S1134640DB0700D505310023029301930093043363
S113465005AA02200F4DA847051E01D009256D4269
S113466024010B482018102200210B4B98472800E6
S113467007B030BD06256D42F9E706256D42F6E721
S1134680C08C0000F9750000E09700002D76000052
S1134690D0140020F5110000E110000070B582B0C4
S11346A004002A4B98470005000D294B0025984229
S11346B002D8280002B070BD01A92648264B9847AD
S11346C0051EF6D1254B019A134025491943019142
S11346D02048244B9847002C20D000212248214C0C
S11346E0A047AB212148A04701212148A047002130
S11346F02048A04781212048A047204E204C30006C
S1134700A0470128FBD1154B019A1340802149028F
S1134710194301910F48134B9847CAE700211248E7
S1134720104CA047B9211148A04701211048A047C7
S113473000211048A04781210F48A0470F4E104C7C
S11347403000A0470128FBD1DDE7C0467D280000EA
S11347509F03000010140000F92D0000FF8F88F85B
S113476000101101052E0000080201000C020100D6
S1134770140201001C0201000402010018020100DD
S1134780ED2D00000C4B1B68002B06D1EFF31083BA
S1134790002B07D00022094B1A70074A1368013313
S11347A01360704772B6BFF35F8F0022044B1A7018
S11347B00132024B1A70F0E7BC020020C002002054
S11347C00A000020084B1A68013A1A601B68002B83
S11347D009D1064B1B78002B05D00122044B1A701B
S11347E0BFF35F8F62B67047BC020020C002002096
S11347F00A000020F0B583B001AC012565700027E4
S1134800A770257021003E20064EB0478022D205B5
S1134810054B9A612770657021000F20B04703B0E3
S1134820F0BDC046FD490000804400411723002A22
S113483001D0180070478B00064A9B58002B03D008
S1134840834205D01D23F4E7890088500023F0E754
S11348500023EEE7901500201723002901D018004B
S1134860704700221F2800D8024A01238340D360E6
S11348700023F4E7001800401723002901D0180092
S1134880704700221F2800D8024A01238340936006
S11348900023F4E70018004070B50022104B1A7092
S11348A0002310491F25104E0D4C0AE00D4908E065
S11348B023780133DBB223700F2B10D800211F2B78
S11348C0F4D9280018400122824008691042EFD030
S11348D00A619B009B59002BEAD09847E8E770BD1A
S11348E08C1500200018004090150020044A13780D
S11348F002210B43137053785BB2002BFBDB704730
S11349000018004000B583B0124A936940210B435C
S1134910936101A900230B7005200F4B98470520D4
S11349200E4B98470E4A137801210B4313705378AA
S11349305BB2002BFBDB0B4B19004031002204C39C
S11349409942FCD11022084B1A60084B984703B0D7
S113495000BDC04600040040D5600000496000006E
S1134960001800409015002000E100E0ED48000030
S11349700023036043600122027242728372023395
S1134980C3727047F0B583B005000C0001A9002381
S11349904B70CB7023790B70237A8B702078154B76
S11349A0984700201F2D00D8134807222A40920060
S11349B0E77AA37A002B01D008231F43EB089B005E
S11349C0C31899690F269640B14397403A000A43A9
S11349D09A61637A002B06D143690122AA4093436A
S11349E0436103B0F0BD42690123AB40134343610B
S11349F0F7E7C046CD6100000018004000B583B061
S1134A0001AB80221A700A785A704A789A708A78B0
S1134A10DA701900014B984703B000BDCD61000066
S1134A20F0B5DE4657464E464546E0B587B080466B
S1134A30049116001F000022002300218B463F240E
S1134A4001202100009601975C4603944446059496
S1134A5013E02024641A0500E540A84614E0009CF5
S1134A60019D121BAB415C464D462C43A346039C5F
S1134A7045462C430394013925D3202464420C1960
S1134A80E7D40500A540A84604008C40A14692182E
S1134A905B4114001D00059E4F463E40B446049EF3
S1134AA047463E40B246664657463E4303D006005C
S1134AB0264332002B00009C019D9D42DBD8CED1C1
S1134AC09442D8D8CBE7039B5846190007B03CBCA6
S1134AD090469946A246AB46F0BD10B5490840231E
S1134AE00024814202D2180010BD1C00091A631C64
S1134AF09BB28842F9D94023FF2CF4D814800023B8
S1134B00F1E70000F0B583B00F00160008AA117891
S1134B1004004C434022BC4202D9100003B0F0BD53
S1134B20002B14D1020008000021194CA0470100F9
S1134B303A0000230020174CA04700220123121A38
S1134B408B41120C1B041A4332800022E5E7002239
S1134B50012BF9D10A00002300210D4CA0470200CB
S1134B600B0000920193380000210A4CA047050075
S1134B7080239B0140229842CFD8790FF800009AF5
S1134B80019BA047EA00821AD2B252032A43DBE710
S1134B90A5730000214A000010B582B004000E4B3A
S1134BA01B78002B07D0002905D10B4B5B7883427F
S1134BB010D01D200CE001A90C701320074B98475E
S1134BC01320074B9847044B5C7001221A70002095
S1134BD002B010BD0020FBE7C4020020D560000035
S1134BE049600000404B984231D00AD93F4B98426B
S1134BF04DD03F4B98425AD03E4B984237D000207C
S1134C0070473D4B98420CD03C4B9842F7D1012958
S1134C1017D000295DD0022915D0032915D0002012
S1134C20EEE7012907D0002951D0022905D0032934
S1134C3005D00020E4E73248E2E73248E0E73248B2
S1134C40DEE73248DCE73248DAE73248D8E70129C0
S1134C5007D000293FD0022905D0032905D0002020
S1134C60CEE72D48CCE72D48CAE72D48C8E70129EF
S1134C7007D0002931D0022905D0032905D000200E
S1134C80BEE72848BCE72848BAE72848B8E701291E
S1134C9007D0002923D0022905D0032905D00020FC
S1134CA0AEE72348ACE72348AAE72348A8E701294D
S1134CB007D0002915D0022905D0032905D00020EA
S1134CC09EE71E489CE71E489AE71E4898E71E4840
S1134CD096E7032094E71D4892E71D4890E71D4896
S1134CE08EE71D488CE7C0460010004200180042C1
S1134CF0001C00420014004200080042000C004264
S1134D000300050003000600030007000300010080
S1134D1003001E0003001F000300090003000A0033
S1134D2003000B0003001100030012000300130032
S1134D3003000D0003000E0003000F000300170022
S1134D400300180003001900030004000300080016
S1134D500300100003000C000300160030B587B0F8
S1134D600B4B6A4632CB32C232CB32C2009B8342F7
S1134D700BD001239A0069465258824206D001336F
S1134D80062BF7D1002007B030BD0023D8B2FAE7D4
S1134D901498000070470000F0B50A4B1B78002BF4
S1134DA00CD1094F094E0A4D0024DE515A191460E2
S1134DB00433182BF9D10122024B1A708000024BE4
S1134DC0C150F0BDC6020020C8020020954D00006D
S1134DD0D015002000B583B009236A46137001334F
S1134DE05370013393700133D37001331371013362
S1134DF05371034B98476B46185603B000BDC04629
S1134E005D4D000010B5024B1B680020984710BD93
S1134E10C802002010B5024B5B680120984710BD02
S1134E20C802002010B5024B9B680220984710BDB1
S1134E30C802002010B5024BDB680320984710BD60
S1134E40C802002010B5024B1B690420984710BD0E
S1134E50C802002010B5024B5B690520984710BDBD
S1134E60C8020020F0B58BB005000C0016002960C4
S1134E700B681C209B0701D50BB0F0BD0B681738DD
S1134E80DB07F9D40800604B9847604A116A871C15
S1134E900123BB400B43136209A92427F35D0B7064
S1134EA01430C3B201931800594B98470198594BD9
S1134EB09847F05D0021584B98473378012B38D040
S1134EC02B000C3329002831002204C38B42FCD16F
S1134ED00023EB62AB620024AB862B863633EC54A2
S1134EE00133EC540133EC54353B6B722C7128685C
S1134EF0454B984707004949494B9847BF00494BE0
S1134F00FD502F6804AB80221A705C707F3A9A704F
S1134F10DC703378002B02D1002204AB9A70B36AA0
S1134F200593F36A0693336B0793736B089300241A
S1134F300BE023680C2213432360C1E738003A4B8B
S1134F4098470AE00134042C10D0E1B2A30002AA6D
S1134F500C201218D0580028F0D0431CF2D004A919
S1134F600870000CC0B2314B9847EBE733786B7193
S1134F70337CAB71B37CEB71337D2B72002202ABBB
S1134F80DA803378012B28D07368B2681343F2684F
S1134F901343317C727C002A03D1254A927892070C
S1134FA001D580221343B27C002A02D080229202CF
S1134FB01143F27C002A02D0802292001143327DF8
S1134FC0002A02D08022920111433A6813433B60C5
S1134FD07B680B437B6000204EE728680A4B9847A8
S1134FE01430C0B2134B9847010002AB9A1DB0694C
S1134FF0114B984703001720002B00D03CE702AB6D
S113500006331B783B73BFE75D4D0000000400408E
S1135010D560000049600000994B0000D1520000A7
S1135020994D0000D0150020E54B0000CD61000033
S113503000200041F1600000DB4A0000F0B5D646D4
S1135040474680B583B03824055D333C052D02D036
S11350501234002A05D1200003B00CBC90469A46B5
S1135060F0BDC479002C44D11C34F4E705682C7ECF
S11350703C42FCD02C7E3C421AD04446AC6217E041
S11350808479012C26D0AD6AECB2A446019C002C94
S11350903AD1751CADB264468C558479012C1ED06E
S11350A02E00013A92B252451FD04479012CDDD032
S11350B005682C7E1C42FCD02C7E1C4217D06C8BC5
S11350C0A4460024019464461C42D9D06B831E2458
S11350D00194D5E7AC6AE405E40DA446D6E70236AC
S11350E0B6B26446240A4C55DBE7019CB3E71024AE
S11350F0B1E7013A92B200260127DB05DB0D9846A1
S11351000423024CA246D0E7019CA4E7FFFF000061
S113511010B544791523012C01D0180010BD047A70
S11351200023002CF9D1002A58D04B78002B44D00E
S113513003681B7EDB0710D40A78D10900230029F9
S113514004D15309DB012E498C4663441F211140CD
S113515001228A409A610523DFE70A78D4090023F3
S1135160002C04D15309DB01254CA44663441F24BD
S113517014400122A2405A6103681A7ED20701D565
S11351808A789A62C2790023002AC6D1026804216F
S1135190137E0B42FCD0117E00234907BDD5538BEF
S11351A05B0701D5042353838379012B02D0936ACF
S11351B00023B2E7936A0023AFE70A78D1090023FA
S11351C0002904D15309DB010D498C4663441F2196
S11351D0114001228A405A6100239EE70A78D109CE
S11351E00023002904D15309DB0105498C4663449B
S11351F01F21114001228A409A6100238DE7C04695
S113520000440041F0B5DE4657464E464546E0B5FB
S113521083B08A463823C45C333B052C02D0123356
S1135220002A4BD1180003B03CBC90469946A246D4
S1135230AB46F0BD0237BFB241465346595C090242
S11352405B460B4318E08379012B2AD0936A013E15
S1135250B6B2664527D00268137E2342FCD07B1C7D
S11352609BB298465346DB5D9B4681790129E1D088
S11352706946CB80CB884746117E214202D0DB05AC
S1135280DB0D9362C379002BE1D00268137E2B42BD
S1135290FCD0137E2B42DAD0538B2B42D3D05583D0
S11352A0D1E7936AD3E742790023012ABAD101688E
S11352B001320B7E1342FCD00023B3E7013A96B2CD
S11352C0002701240425014B9C46C4E7FFFF00008E
S11352D0F8B58000704BC45826683723E75C362243
S11352E0A25C1740337EB57D1D40EB0702D5637980
S11352F0012B1ED06B0711D5738B5B075AD5637ACC
S1135300012B08D01E223823E254353B637202334A
S113531033753B074AD4B36A04237383AB0703D5BD
S11353206379012B00D197E06DB2002D00DAA9E07A
S1135330F8BD637A002B22D0637A002BDAD021687F
S1135340E26A1378DBB2501CE062A079012827D00E
S11353509BB2DB05DB0D8B62A38E013B9BB2A38664
S1135360A38E9BB2002BC5D101333375637A012B15
S1135370C0D1E379002BBDD10233B375BAE7474BF3
S11353801B88B362638E013B9BB26386638E9BB2C0
S1135390002B01D1013333756379012BCCD0A9E7FC
S11353A05078000203430232E262D2E72000A3698C
S11353B09847B0E7637A012B28D023689B6ADB0502
S11353C0DB0DDAB2A16A0A70A26A511CA162A1794A
S11353D0012934D0238E013B9BB22386238E9BB2BA
S11353E0002B00D09AE700223833E254343B337563
S11353F0637A022B29D0637A002B00D08EE7BB0797
S113540000D48BE720002369984787E723689B6AC9
S1135410638E013B9BB26386638E9BB2002B00D0EC
S11354207CE70433337500223433E254353B637232
S1135430FB0700D472E72000E36898476EE71B0A75
S11354405370A36A0133A362C4E77B0700D465E702
S113545020006369984761E7637A012B00D063E712
S1135460E379002B00D05FE70233337501336372B5
S113547000223533E254FB0700D455E72000E368EB
S1135480984751E78023337533767B0600D44FE782
S1135490636A200098474BE7D0150020E8150020E8
S11354A0F0B5DE4657464E464546E0B591B0050098
S11354B00C00160029600800BC4B984702002368C2
S11354C00520DB0706D511B03CBC90469946A246A0
S11354D0AB46F0BD236817309B07F4D4B449086A7F
S11354E0971C0123BB4003430B620FA92D27F35DD7
S11354F00B701432D3B202931800AE4B9847029843
S1135500AD4B9847F05D0021AC4B9847F37A6B7133
S11355102423F35CAB712523F35CEB71F37E2B72D4
S1135520337F6B722B6898461800A04B9847143051
S113553000220E2306A98C4663441A80328A029202
S11355408023DB019A4200D19EE00FD9C023DB0106
S1135550029A9A4200D192E080231B029A4200D020
S11355601FE1032306930023079308E080239B0194
S11355709A4200D015E1102306930F3B079333683A
S11355800593F368039373690493337E9B46262340
S1135590F35C9A4673689946002B00D1A0E08023FF
S11355A05B05994500D184E0737E002B02D0B37E65
S11355B0424693732A68029FD369002BFCD10E33B1
S11355C006AA944663441B8842469381059B039A2A
S11355D01343049A13434A4613431F435B461B0277
S11355E01F4353465B071F432723F35C002B01D162
S11355F004331F43737E9B02327F52021343727F34
S1135600120213432422B25C520413432522B25CD7
S113561012041343B17AF27A114319433389FF2BED
S113562000D181E080225204174319432C23F35CF8
S1135630002B03D1624B9B789B0701D580231F432A
S11356402A68D369002BFCD1434659602A68D36980
S1135650002BFCD143461F600EAB80221A7000223F
S11356605A70DA709A70336B0A93736B0B93B36B43
S11356700C93F36B02930D9300270AAE63E00823A7
S11356800693073B07937AE733680593F36803931C
S113569073690493337E9B462623F35C9A467368AE
S11356A09946002B18D080235B05994501D0002032
S11356B025E02723F35C002B00D075E7336A1F0035
S11356C0C0B2404B984701000E2206AB9C46624490
S11356D038003D4B984712E00823069300230793B4
S11356E02723F35C002B0ED0069B0093079B0E220E
S11356F006A98C466244B16A306A344FB847002820
S113570000D0E0E650E7336A1F00C0B22D4B984743
S11357100100069B0093079B0E2206A88446624460
S113572038002A4FB847EAE7F37E002B00D17DE723
S11357308023DB041F4379E72000254B984707E0CB
S11357400137042F0DD0F9B2BB0098590028F3D0CB
S1135750431CF5D00EA90870000CC0B21D4B98472D
S1135760EEE70023EB602B616B61AB61EB612B62B5
S1135770AB626B620022EB85AB853033EA540133B4
S1135780EA540133EA540133EA542868074B984732
S113579004001149114B9847A400114BE550002017
S11357A091E61023069300230793E8E65D4D00007D
S11357B000040040D560000049600000994B0000DF
S11357C000200041F1600000DB4A0000054B0000AE
S11357D0E54B0000CD610000F9580000994D000030
S11357E0D0150020C2791C23002A01D1180070476B
S11357F0C28D92B2173B002AF8D10368DA69002AF5
S1135800FCD1198502211A7E0A42FCD00023EDE75F
S113581082791C23002A01D118007047828D92B22C
S1135820173B002AF8D10268107E4007F4D5D369EB
S1135830002BFCD1538BDBB298061DD0980703D5FF
S1135840022353831833E7E7580703D5042353830C
S11358501A33E1E7D80703D5012353831233DBE777
S1135860D80603D5102353833233D5E79B0603D5DB
S1135870202353832133CFE7138D0B800023CBE701
S1135880F8B504000D00160007680F4B9847A38D68
S11358909BB2002B03D00D4B98470520F8BDA6857D
S11358A00A4B9847656205223223E2542E3BBB75AE
S11358B0237A002B01D02023BB75637A0020002BB0
S11358C0ECD00823BB75E9E785470000C547000015
S11358D0931C9B00C31859603021012393401A0084
S11358E0435C13434354704710B50122014B98475E
S11358F010BDC04681580000F8B58000624BC55801
S11359002C68E369002BFCD1237EA67D1E40302346
S1135910EB5C3122AF5C1F40F30722D5EB8D9BB2C9
S1135920002B1CD0AA6A1378DBB2511CA9626979D6
S113593001290ED09BB2DB05DB0D2385EB8D013BEA
S11359409BB2EB85002B0CD1013323750133A37576
S113595007E0517809020B430232AA62EBE7012304
S11359602375B30706D50223237500223133EA5485
S1135970FB071AD4730765D5AB8D9BB2002B5FD0A0
S1135980638BDBB21A0714D43F221340002B34D0AC
S11359909A0711D51A223223EA54303B63837B07DA
S11359A050D528006B6998474CE02800EB6898476D
S11359B0E0E737221340E9E75A0705D51E223223D0
S11359C0EA542E3B6383EAE7DA0705D51322322330
S11359D0EA54313B6383E2E7DA0605D542223223F7
S11359E0EA54223B6383DAE720221A42D7D02132D9
S11359F03223EA54123B6383D1E7238DDB05DB0DAD
S1135A00DAB2696A0A706A6A511C696269790129A1
S1135A1010D0AB8D013B9BB2AB85002B12D104336C
S1135A20237500222E33EA54BB070BD528002B69BB
S1135A30984707E01B0A53706B6A01336B62E8E70F
S1135A4004232375F30604D5102323752376FB065C
S1135A500ED4B30604D52023237523763B070BD439
S1135A60330704D5082323752376BB0608D4F8BD71
S1135A702800EB699847ECE72800AB699847EFE703
S1135A802B6A28009847F2E7D015002010B50828A3
S1135A9003D880001C4B1B589F46002032E01B4B50
S1135AA018692FE01A4B1B6A9B059B0F1948D840B5
S1135AB028E0164B586925E0144B1B6800209B070F
S1135AC020D513491022CB681A42FCD00F4B1A6818
S1135AD024231340042B01D00F4813E000200F4B64
S1135AE098470A4B9B681B041B0C58430AE050233D
S1135AF0074AD35C00205B0704D5044BD86801E057
S1135B008020000210BDC0462C980000E002002056
S1135B100008004000127A00006CDC02F160000012
S1135B2070B50C490B6A04788578407801221040DE
S1135B3080014026B34303432A40D201802083439B
S1135B4013430322224012020348034013430B620F
S1135B5070BDC04600080040FFFCFFFFF0B5DE4604
S1135B6057464E464546E0B50100264B9B469B8A68
S1135B70457800784242424191468878CA789446F2
S1135B800A7990464E7B0F7B8C7B8A681E494A615A
S1135B9001214A4692009146042293434A46134304
S1135BA042460A40D2009046082293434246134399
S1135BB062460A40120194461022934362461343FC
S1135BC0084040012022934303430F40BF0140207B
S1135BD083433B430E40F6014030834333437938DB
S1135BE005402D02094803402B432140090308487E
S1135BF003400B435A4693823CBC90469946A246C6
S1135C00AB46F0BD00080040E0020020FFF8FFFFB3
S1135C10FFEFFFFF10B5037A9B061B0C4289920528
S1135C20920D134318494B608379C2791343428818
S1135C308488224313434278D20113430B600378D0
S1135C40042B11D0202B0ED1037B9B06028A134315
S1135C50C28912040D490A4013430B4A9360116828
S1135C600B4B0B43136010BD037B9B06028A13434B
S1135C70C289120405490A401343034A9360136816
S1135C8004210B431360EEE7E00200200000FF0351
S1135C9024040000082803D88000254B1B589F4685
S1135CA0172044E0234A136A02210B4313620020A5
S1135CB03DE0204A936902210B439361002036E0C2
S1135CC01C4A138A02210B43138200202FE0194A35
S1135CD0938A02210B439382002028E016490B6823
